:0400000007EF00F016
:0A0008007B820BED08F06CEF0CF0AA
:10100000003738392F3435362A3132332D23303DED
:051010002B2569000022
:101016000600F2A811EF08F013EF08F01CEF08F035
:10102600F2A218EF08F01AEF08F01CEF08F026EC11
:101036000DF0F0A621EF08F023EF08F02CEF08F0F2
:10104600F0A028EF08F02AEF08F02CEF08F024ECC7
:101056000DF0F0A831EF08F033EF08F03CEF08F0A0
:10106600F0A238EF08F03AEF08F03CEF08F022EC77
:101076000DF0F2A641EF08F043EF08F05EEF08F03E
:10108600F2A048EF08F04AEF08F05EEF08F081A8FA
:101096004FEF08F051EF08F05EEF08F05A04D8A4BD
:1010A60057EF08F059EF08F05EEF08F0000E5A6EA1
:1010B600000EEFEC0CF0F2A663EF08F065EF08F017
:1010C60080EF08F0F2A06AEF08F06CEF08F080EF0E
:1010D60008F081B871EF08F073EF08F080EF08F0C0
:1010E6005A50D8A479EF08F07BEF08F080EF08F0AB
:1010F600010E5A6E010EEFEC0CF0F2A685EF08F029
:1011060087EF08F0A2EF08F0F2A08CEF08F08EEF60
:1011160008F0A2EF08F081AA93EF08F095EF08F027
:10112600A2EF08F05904D8A49BEF08F09DEF08F051
:10113600A2EF08F0000E596E000EE2EC0CF0F2A6DB
:10114600A7EF08F0A9EF08F0C4EF08F0F2A0AEEFA1
:1011560008F0B0EF08F0C4EF08F081BAB5EF08F078
:10116600B7EF08F0C4EF08F05950D8A4BDEF08F067
:10117600BFEF08F0C4EF08F0010E596E010EE2EC65
:101186000CF0F2A6C9EF08F0CBEF08F0E6EF08F096
:10119600F2A0D0EF08F0D2EF08F0E6EF08F081AC4D
:1011A600D7EF08F0D9EF08F0E6EF08F05804D8A416
:1011B600DFEF08F0E1EF08F0E6EF08F0000E586EFA
:1011C600000ED5EC0CF0F2A6EBEF08F0EDEF08F010
:1011D60008EF09F0F2A0F2EF08F0F4EF08F008EFDC
:1011E60009F081BCF9EF08F0FBEF08F008EF09F011
:1011F6005850D8A401EF09F003EF09F008EF09F001
:10120600010E586E010ED5EC0CF0F2A60DEF09F0AA
:101216000FEF09F02AEF09F0F2A014EF09F016EF2C
:1012260009F02AEF09F081AE1BEF09F01DEF09F076
:101236002AEF09F05704D8A423EF09F025EF09F0A7
:101246002AEF09F0000E576E000EC8EC0CF0F2A65D
:101256002FEF09F031EF09F04CEF09F0F2A036EF6D
:1012660009F038EF09F04CEF09F081BE3DEF09F0C7
:101276003FEF09F04CEF09F05750D8A445EF09F0BD
:1012860047EF09F04CEF09F0010E576E010EC8EC5E
:101296000CF09DAC51EF09F053EF09F05CEF09F04B
:1012A6009EAC58EF09F05AEF09F05CEF09F02CEC10
:1012B6000DF0F2AA61EF09F063EF09F06CEF09F0A7
:1012C600F2A468EF09F06AEF09F06CEF09F012EC8E
:1012D6000DF09DA071EF09F073EF09F07CEF09F0B6
:1012E6009EA078EF09F07AEF09F07CEF09F00CEC9C
:1012F6000DF09DA281EF09F083EF09F08CEF09F064
:101306009EA288EF09F08AEF09F08CEF09F018EC3D
:101316000DF0A0A291EF09F093EF09F09CEF09F010
:10132600A1A298EF09F09AEF09F09CEF09F006ECFC
:101336000DF09DA8A1EF09F0A3EF09F0ACEF09F0BD
:101346009EA8A8EF09F0AAEF09F0ACEF09F01CEC93
:101356000DF09DAAB1EF09F0B3EF09F0BCEF09F06B
:101366009EAAB8EF09F0BAEF09F0BCEF09F02EEC2F
:101376000DF09DA6C1EF09F0C3EF09F0CCEF09F01F
:101386009EA6C8EF09F0CAEF09F0CCEF09F01EECF3
:101396000DF0A0A6D1EF09F0D3EF09F0DCEF09F0CC
:1013A600A1A6D8EF09F0DAEF09F0DCEF09F020EC9E
:1013B6000DF09DA4E1EF09F0E3EF09F0ECEF09F081
:1013C6009EA4E8EF09F0EAEF09F0ECEF09F02AEC49
:1013D6000DF0A0A0F1EF09F0F3EF09F0FCEF09F032
:1013E600A1A0F8EF09F0FAEF09F0FCEF09F028ECFC
:1013F6000DF07B921100010E6E6E66506710D8B428
:1014060007EF0AF009EF0AF01AEF0AF066C0D9FFF3
:1014160067C0DAFFDF30E832E832070B686E070E86
:10142600686418EF0AF01AEF0AF07DEF0AF0000E72
:101436006E6E9EEF0AF066C0D9FF67C0DAFFDF3036
:10144600E832E832070B686E010E696E682A2EEFE5
:101456000AF0D8906936682E2CEF0AF06950FF0A18
:101466006A6E66C0D9FF67C0DAFFDF50070B6B6E86
:101476006B50020D4D0EF324D96E000EF420DA6E79
:10148600DECF6CF0DDCF6DF06CC0D9FF6DC0DAFF3A
:101496006A50DF169EEF0AF066C0D9FF67C0DAFF12
:1014A600DF30E832E832070B686E010E696E682A93
:1014B6005FEF0AF0D8906936682E5DEF0AF066C0D5
:1014C600D9FF67C0DAFFDF50070B6A6E6A50020D5C
:1014D6004D0EF324D96E000EF420DA6EDECF6BF0DB
:1014E600DDCF6CF06BC0D9FF6CC0DAFF6950DF123C
:1014F6009EEF0AF066C0D9FF67C0DAFFDFBC86EF51
:101506000AF089EF0AF0010E8AEF0AF0000E686E03
:10151600696A6950000AD8B493EF0AF01AEF0AF024
:101526006850000AD8B41EEF0AF0010AD8B44FEF8B
:101536000AF01AEF0AF06E501200010E6F6E665036
:101546006710D8B4A9EF0AF0ABEF0AF0BCEF0AF0C7
:1015560066C0D9FF67C0DAFFDF30E832E832070B32
:10156600696E070E6964BAEF0AF0BCEF0AF01FEF66
:101576000BF0000E6F6E34EF0BF066C0D9FF67C03C
:10158600DAFFDF30E832E832070B696E010E6A6E69
:10159600692AD0EF0AF0D8906A36692ECEEF0AF0A3
:1015A6006A50FF0A6B6E66C0D9FF67C0DAFFDF506C
:1015B600070B6C6E6C50020D430EF324D96E000EB1
:1015C600F420DA6EDECF6DF0DDCF6EF06DC0D9FFA0
:1015D6006EC0DAFF6B50DF1634EF0BF066C0D9FF32
:1015E60067C0DAFFDF30E832E832070B696E010EBA
:1015F6006A6E692A01EF0BF0D8906A36692EFFEF02
:101606000AF066C0D9FF67C0DAFFDF50070B6B6EC2
:101616006B50020D430EF324D96E000EF420DA6EE1
:10162600DECF6CF0DDCF6DF06CC0D9FF6DC0DAFF98
:101636006A50DF1234EF0BF06850696E6A6A6A50BE
:10164600000AD8B429EF0BF0BCEF0AF06950000A83
:10165600D8B4C0EF0AF0010AD8B4F1EF0AF0BCEF33
:101666000AF06F5012009EEC0CF0640E706E000EC5
:10167600716EC0EC0BF0630E706E000E716EC0ECF6
:101686000BF0620E706E000E716EC0EC0BF0610E08
:10169600706E000E716EC0EC0BF0030E7A6E8A0E41
:1016A600796E560EE82EFED7792EFCD77A2EFAD70B
:1016B600640E706E000E716EFBEC0BF0630E706EB6
:1016C600000E716EFBEC0BF0620E706E000E716E0A
:1016D600FBEC0BF0610E706E000E716EFBEC0BF006
:1016E600030E7A6E8A0E796E560EE82EFED7792E86
:1016F600FCD77A2EFAD738EF0BF007EF00F0010E81
:10170600776E74507510D8A48BEF0BF08DEF0BF03D
:1017160091EF0BF0000E776EBEEF0BF042C078F043
:1017260074C0D9FF75C0DAFFDF500F0B766E7850A4
:101736007618F80B7618786E74C0D9FF75C0DAFF84
:10174600DF38070B766E76467646764678507618FC
:10175600C70B7618786E789C74C0D9FF75C0DAFF0F
:10176600DFAE02D0788E01D0789E780E706E000EB5
:10177600716E36EC0CF07750120070507110D8A4D0
:10178600C7EF0BF0C9EF0BF0CBEF0BF0FAEF0BF056
:1017960041C073F070C0D9FF71C0DAFFDF500F0B84
:1017A600726E73507218F80B7218736E70C0D9FF90
:1017B60071C0DAFFDF38070B726E724672467246E8
:1017C60073507218C70B7218736E739C70C0D9FF72
:1017D60071C0DAFFDFAE02D0738E01D0739E730E36
:1017E600666E000E676E010E686EA0EC0AF01200BF
:1017F60070507110D8A402EF0CF004EF0CF006EF55
:101806000CF035EF0CF040C073F070C0D9FF71C01A
:10181600DAFFDF500F0B726E73507218F80B7218E6
:10182600736E70C0D9FF71C0DAFFDF38070B726EB6
:1018360072467246724673507218C70B7218736EF0
:10184600739C70C0D9FF71C0DAFFDFAE02D0738E11
:1018560001D0739E730E666E000E676E000E686E84
:10186600A0EC0AF0120070507110D8B43DEF0CF0E5
:101876003FEF0CF050EF0CF070C0D9FF71C0DAFFEB
:10188600DF30E832E832070B726E070E72644EEFF5
:101896000CF050EF0CF054EF0CF0000E736E6AEF84
:1018A6000CF070C066F071C067F0FEEC09F0736E64
:1018B60070C066F071C067F070C0D9FF71C0DAFF02
:1018C600000EDFBE010E686EA0EC0AF0736E735058
:1018D6001200F80EF66E190EF76E000EF86E00EE98
:1018E60080F010EE14F00900F5CFEEFFE550E15060
:1018F600FAE16E0EF66E190EF76E000EF86E00EE39
:1019060043F010EE22F00900F5CFEEFFE550E1506E
:10191600FAE10001996B986B976B966B956B946BDC
:1019260000EE01F0420EEE6AE806FDE17B907B9246
:10193600000136EF0BF0640E746E000E756E82ECCD
:101946000BF0630E746E000E756E82EC0BF0620E79
:10195600746E000E756E82EC0BF0610E746E000EE6
:10196600756E82EC0BF01200890F8A0F8B0F8C0FAD
:101976008D0F920F930F940F950F960F0101010192
:10198600020A121A222A32221202656EF29065505B
:10199600D8A4D0EF0CF0D2EF0CF0D4EF0CF0D4EFCB
:1019A6000CF01200656EF2906550D8A4DDEF0CF0D5
:1019B600DFEF0CF0E1EF0CF0E1EF0CF01200656EDA
:1019C600F2906550D8A4EAEF0CF0ECEF0CF0EEEFD5
:1019D6000CF0EEEF0CF01200656EF2906550D8A494
:1019E600F7EF0CF0F9EF0CF0FBEF0CF0FBEF0CF05F
:1019F6001200800F810F820F830F840F323A030B80
:101A0600131B232B333BA1920C50B36E0BC0B2FFBA
:101A160012009E901250CF6E11C0CEFF1200F294AB
:101A26001650D76E15C0D6FF12009E923BC0CCFF53
:101A360012009D9812009E961200A1961200F09236
:101A46001200F0901200F2921200A19012009E94E1
:081A560012009E9C1200120018
:020000040020DA
:08000000FFFFFFFFFFFFFFFF00
:020000040030CA
:0E000000FF020912FF8181FF0FC00FE00F40C9
:00000001FF
